{
  "_format": "hh-sol-artifact-1",
  "contractName": "AxelarProxy",
  "sourceName": "contracts/AxelarProxy.sol",
  "abi": [
    {
      "inputs": [
        {
          "internalType": "address",
          "name": "gateway_",
          "type": "address"
        },
        {
          "internalType": "address",
          "name": "gasReceiver_",
          "type": "address"
        }
      ],
      "stateMutability": "nonpayable",
      "type": "constructor"
    },
    {
      "inputs": [
        {
          "internalType": "address",
          "name": "target",
          "type": "address"
        }
      ],
      "name": "AddressEmptyCode",
      "type": "error"
    },
    {
      "inputs": [],
      "name": "AxelarProxy__NoTokens",
      "type": "error"
    },
    {
      "inputs": [],
      "name": "AxelarProxy__NonceTooOld",
      "type": "error"
    },
    {
      "inputs": [],
      "name": "AxelarProxy__PastDeadline",
      "type": "error"
    },
    {
      "inputs": [],
      "name": "AxelarProxy__WrongMsgId",
      "type": "error"
    },
    {
      "inputs": [],
      "name": "AxelarProxy__WrongSender",
      "type": "error"
    },
    {
      "inputs": [],
      "name": "AxelarProxy__WrongSource",
      "type": "error"
    },
    {
      "inputs": [],
      "name": "FailedCall",
      "type": "error"
    },
    {
      "inputs": [
        {
          "internalType": "uint256",
          "name": "balance",
          "type": "uint256"
        },
        {
          "internalType": "uint256",
          "name": "needed",
          "type": "uint256"
        }
      ],
      "name": "InsufficientBalance",
      "type": "error"
    },
    {
      "inputs": [],
      "name": "InvalidAddress",
      "type": "error"
    },
    {
      "inputs": [],
      "name": "NotApprovedByGateway",
      "type": "error"
    },
    {
      "anonymous": false,
      "inputs": [
        {
          "indexed": true,
          "internalType": "address",
          "name": "target",
          "type": "address"
        },
        {
          "indexed": false,
          "internalType": "uint256",
          "name": "nonce",
          "type": "uint256"
        },
        {
          "indexed": false,
          "internalType": "bytes",
          "name": "callData",
          "type": "bytes"
        }
      ],
      "name": "LogicCallEvent",
      "type": "event"
    },
    {
      "inputs": [],
      "name": "LOGIC_CALL_MSG_ID",
      "outputs": [
        {
          "internalType": "uint256",
          "name": "",
          "type": "uint256"
        }
      ],
      "stateMutability": "view",
      "type": "function"
    },
    {
      "inputs": [],
      "name": "OSMOSIS_CHAIN_HASH",
      "outputs": [
        {
          "internalType": "bytes32",
          "name": "",
          "type": "bytes32"
        }
      ],
      "stateMutability": "view",
      "type": "function"
    },
    {
      "inputs": [],
      "name": "UPGRADE_MSG_ID",
      "outputs": [
        {
          "internalType": "uint256",
          "name": "",
          "type": "uint256"
        }
      ],
      "stateMutability": "view",
      "type": "function"
    },
    {
      "inputs": [
        {
          "internalType": "bytes32",
          "name": "commandId",
          "type": "bytes32"
        },
        {
          "internalType": "string",
          "name": "sourceChain",
          "type": "string"
        },
        {
          "internalType": "string",
          "name": "sourceAddress",
          "type": "string"
        },
        {
          "internalType": "bytes",
          "name": "payload",
          "type": "bytes"
        }
      ],
      "name": "execute",
      "outputs": [],
      "stateMutability": "nonpayable",
      "type": "function"
    },
    {
      "inputs": [
        {
          "internalType": "bytes32",
          "name": "commandId",
          "type": "bytes32"
        },
        {
          "internalType": "string",
          "name": "sourceChain",
          "type": "string"
        },
        {
          "internalType": "string",
          "name": "sourceAddress",
          "type": "string"
        },
        {
          "internalType": "bytes",
          "name": "payload",
          "type": "bytes"
        },
        {
          "internalType": "string",
          "name": "tokenSymbol",
          "type": "string"
        },
        {
          "internalType": "uint256",
          "name": "amount",
          "type": "uint256"
        }
      ],
      "name": "executeWithToken",
      "outputs": [],
      "stateMutability": "nonpayable",
      "type": "function"
    },
    {
      "inputs": [],
      "name": "gasService",
      "outputs": [
        {
          "internalType": "contract IAxelarGasService",
          "name": "",
          "type": "address"
        }
      ],
      "stateMutability": "view",
      "type": "function"
    },
    {
      "inputs": [],
      "name": "gateway",
      "outputs": [
        {
          "internalType": "contract IAxelarGateway",
          "name": "",
          "type": "address"
        }
      ],
      "stateMutability": "view",
      "type": "function"
    },
    {
      "inputs": [
        {
          "internalType": "address",
          "name": "",
          "type": "address"
        }
      ],
      "name": "lastRecordedNonce",
      "outputs": [
        {
          "internalType": "uint256",
          "name": "",
          "type": "uint256"
        }
      ],
      "stateMutability": "view",
      "type": "function"
    }
  ],
  "bytecode": "0x60c060405234801561001057600080fd5b5060405161189d38038061189d8339818101604052810190610032919061016e565b8180600073ffffffffffffffffffffffffffffffffffffffff168173ffffffffffffffffffffffffffffffffffffffff160361009a576040517fe6c4247b00000000000000000000000000000000000000000000000000000000815260040160405180910390fd5b8073ffffffffffffffffffffffffffffffffffffffff1660808173ffffffffffffffffffffffffffffffffffffffff168152505050508073ffffffffffffffffffffffffffffffffffffffff1660a08173ffffffffffffffffffffffffffffffffffffffff168152505050506101ae565b600080fd5b600073ffffffffffffffffffffffffffffffffffffffff82169050919050565b600061013b82610110565b9050919050565b61014b81610130565b811461015657600080fd5b50565b60008151905061016881610142565b92915050565b600080604083850312156101855761018461010b565b5b600061019385828601610159565b92505060206101a485828601610159565b9150509250929050565b60805160a0516116c36101da60003960006103ce01526000818161018f015261043901526116c36000f3fe608060405234801561001057600080fd5b50600436106100885760003560e01c80635c71668e1161005b5780635c71668e146101015780636a22d8cc1461013157806394af7ce31461014f578063bb0ba4c61461016d57610088565b8063116191b61461008d5780631a98b2e0146100ab57806349160658146100c75780634c4e81d9146100e3575b600080fd5b61009561018b565b6040516100a29190610afa565b60405180910390f35b6100c560048036038101906100c09190610c50565b6101b3565b005b6100e160048036038101906100dc9190610d60565b6102b7565b005b6100eb6103af565b6040516100f89190610e38565b60405180910390f35b61011b60048036038101906101169190610e91565b6103b4565b6040516101289190610e38565b60405180910390f35b6101396103cc565b6040516101469190610edf565b60405180910390f35b6101576103f0565b6040516101649190610e38565b60405180910390f35b6101756103f5565b6040516101829190610f09565b60405180910390f35b60007f0000000000000000000000000000000000000000000000000000000000000000905090565b600085856040516101c5929190610f63565b604051809103902090506101d7610435565b73ffffffffffffffffffffffffffffffffffffffff16631876eed98c8c8c8c8c878b8b8b6040518a63ffffffff1660e01b815260040161021f99989796959493929190610fcb565b6020604051808303816000875af115801561023e573d6000803e3d6000fd5b505050506040513d601f19601f82011682018060405250810190610262919061107f565b610298576040517f500c44b400000000000000000000000000000000000000000000000000000000815260040160405180910390fd5b6102aa8b8b8b8b8b8b8b8b8b8b61045d565b5050505050505050505050565b600082826040516102c9929190610f63565b604051809103902090506102db61018b565b73ffffffffffffffffffffffffffffffffffffffff16635f6970c38989898989876040518763ffffffff1660e01b815260040161031d969594939291906110ac565b6020604051808303816000875af115801561033c573d6000803e3d6000fd5b505050506040513d601f19601f82011682018060405250810190610360919061107f565b610396576040517f500c44b400000000000000000000000000000000000000000000000000000000815260040160405180910390fd5b6103a588888888888888610584565b5050505050505050565b600181565b60006020528060005260406000206000915090505481565b7f000000000000000000000000000000000000000000000000000000000000000081565b600081565b6040518060400160405280600981526020017f6f736d6f7369732d3700000000000000000000000000000000000000000000008152508051906020012081565b60007f0000000000000000000000000000000000000000000000000000000000000000905090565b6000858581019061046e9190611141565b9050600061047a610435565b73ffffffffffffffffffffffffffffffffffffffff1663935b13f686866040518363ffffffff1660e01b81526004016104b492919061116e565b602060405180830381865afa1580156104d1573d6000803e3d6000fd5b505050506040513d601f19601f820116820180604052508101906104f591906111a7565b90508073ffffffffffffffffffffffffffffffffffffffff1663a9059cbb83856040518363ffffffff1660e01b81526004016105329291906111e3565b6020604051808303816000875af1158015610551573d6000803e3d6000fd5b505050506040513d601f19601f82011682018060405250810190610575919061107f565b50505050505050505050505050565b6040518060400160405280600981526020017f6f736d6f7369732d3700000000000000000000000000000000000000000000008152508051906020012086866040516105d1929190610f63565b604051809103902014610610576040517f1f688f8a00000000000000000000000000000000000000000000000000000000815260040160405180910390fd5b60008282810190610621919061120c565b9050600181036106e857600080848481019061063d9190611377565b925092505060005b81518110156106e057818181518110610661576106606113e6565b5b602002602001015173ffffffffffffffffffffffffffffffffffffffff1663f2fde38b846040518263ffffffff1660e01b81526004016106a19190611415565b600060405180830381600087803b1580156106bb57600080fd5b505af11580156106cf573d6000803e3d6000fd5b505050508080600101915050610645565b5050506108b8565b6000810361088557600080600080868681019061070591906114d6565b9450945094509450506000808573ffffffffffffffffffffffffffffffffffffffff1673ffffffffffffffffffffffffffffffffffffffff168152602001908152602001600020548311610785576040517f6b7b321400000000000000000000000000000000000000000000000000000000815260040160405180910390fd5b814211156107bf576040517f3af9877a00000000000000000000000000000000000000000000000000000000815260040160405180910390fd5b826000808673ffffffffffffffffffffffffffffffffffffffff1673ffffffffffffffffffffffffffffffffffffffff1681526020019081526020016000208190555061082b818573ffffffffffffffffffffffffffffffffffffffff166108c290919063ffffffff16565b508373ffffffffffffffffffffffffffffffffffffffff167f3dff7296ac236ea9722800635bd3ff1972dfd1b34c60a18c56daf824406a8cce84836040516108749291906115ec565b60405180910390a2505050506108b7565b6040517f9c5abdda00000000000000000000000000000000000000000000000000000000815260040160405180910390fd5b5b5050505050505050565b60606108d0838360006108d8565b905092915050565b6060814710156109215747826040517fcf47918100000000000000000000000000000000000000000000000000000000815260040161091892919061161c565b60405180910390fd5b6000808573ffffffffffffffffffffffffffffffffffffffff16848660405161094a9190611676565b60006040518083038185875af1925050503d8060008114610987576040519150601f19603f3d011682016040523d82523d6000602084013e61098c565b606091505b509150915061099c8683836109a7565b925050509392505050565b6060826109bc576109b782610a36565b610a2e565b600082511480156109e4575060008473ffffffffffffffffffffffffffffffffffffffff163b145b15610a2657836040517f9996b315000000000000000000000000000000000000000000000000000000008152600401610a1d9190611415565b60405180910390fd5b819050610a2f565b5b9392505050565b600081511115610a495780518082602001fd5b6040517fd6bda27500000000000000000000000000000000000000000000000000000000815260040160405180910390fd5b600073ffffffffffffffffffffffffffffffffffffffff82169050919050565b6000819050919050565b6000610ac0610abb610ab684610a7b565b610a9b565b610a7b565b9050919050565b6000610ad282610aa5565b9050919050565b6000610ae482610ac7565b9050919050565b610af481610ad9565b82525050565b6000602082019050610b0f6000830184610aeb565b92915050565b6000604051905090565b600080fd5b600080fd5b6000819050919050565b610b3c81610b29565b8114610b4757600080fd5b50565b600081359050610b5981610b33565b92915050565b600080fd5b600080fd5b600080fd5b60008083601f840112610b8457610b83610b5f565b5b8235905067ffffffffffffffff811115610ba157610ba0610b64565b5b602083019150836001820283011115610bbd57610bbc610b69565b5b9250929050565b60008083601f840112610bda57610bd9610b5f565b5b8235905067ffffffffffffffff811115610bf757610bf6610b64565b5b602083019150836001820283011115610c1357610c12610b69565b5b9250929050565b6000819050919050565b610c2d81610c1a565b8114610c3857600080fd5b50565b600081359050610c4a81610c24565b92915050565b60008060008060008060008060008060c08b8d031215610c7357610c72610b1f565b5b6000610c818d828e01610b4a565b9a505060208b013567ffffffffffffffff811115610ca257610ca1610b24565b5b610cae8d828e01610b6e565b995099505060408b013567ffffffffffffffff811115610cd157610cd0610b24565b5b610cdd8d828e01610b6e565b975097505060608b013567ffffffffffffffff811115610d0057610cff610b24565b5b610d0c8d828e01610bc4565b955095505060808b013567ffffffffffffffff811115610d2f57610d2e610b24565b5b610d3b8d828e01610b6e565b935093505060a0610d4e8d828e01610c3b565b9150509295989b9194979a5092959850565b60008060008060008060006080888a031215610d7f57610d7e610b1f565b5b6000610d8d8a828b01610b4a565b975050602088013567ffffffffffffffff811115610dae57610dad610b24565b5b610dba8a828b01610b6e565b9650965050604088013567ffffffffffffffff811115610ddd57610ddc610b24565b5b610de98a828b01610b6e565b9450945050606088013567ffffffffffffffff811115610e0c57610e0b610b24565b5b610e188a828b01610bc4565b925092505092959891949750929550565b610e3281610c1a565b82525050565b6000602082019050610e4d6000830184610e29565b92915050565b6000610e5e82610a7b565b9050919050565b610e6e81610e53565b8114610e7957600080fd5b50565b600081359050610e8b81610e65565b92915050565b600060208284031215610ea757610ea6610b1f565b5b6000610eb584828501610e7c565b91505092915050565b6000610ec982610ac7565b9050919050565b610ed981610ebe565b82525050565b6000602082019050610ef46000830184610ed0565b92915050565b610f0381610b29565b82525050565b6000602082019050610f1e6000830184610efa565b92915050565b600081905092915050565b82818337600083830152505050565b6000610f4a8385610f24565b9350610f57838584610f2f565b82840190509392505050565b6000610f70828486610f3e565b91508190509392505050565b600082825260208201905092915050565b6000601f19601f8301169050919050565b6000610faa8385610f7c565b9350610fb7838584610f2f565b610fc083610f8d565b840190509392505050565b600060c082019050610fe0600083018c610efa565b8181036020830152610ff3818a8c610f9e565b9050818103604083015261100881888a610f9e565b90506110176060830187610efa565b818103608083015261102a818587610f9e565b905061103960a0830184610e29565b9a9950505050505050505050565b60008115159050919050565b61105c81611047565b811461106757600080fd5b50565b60008151905061107981611053565b92915050565b60006020828403121561109557611094610b1f565b5b60006110a38482850161106a565b91505092915050565b60006080820190506110c16000830189610efa565b81810360208301526110d4818789610f9e565b905081810360408301526110e9818587610f9e565b90506110f86060830184610efa565b979650505050505050565b600061110e82610a7b565b9050919050565b61111e81611103565b811461112957600080fd5b50565b60008135905061113b81611115565b92915050565b60006020828403121561115757611156610b1f565b5b60006111658482850161112c565b91505092915050565b60006020820190508181036000830152611189818486610f9e565b90509392505050565b6000815190506111a181610e65565b92915050565b6000602082840312156111bd576111bc610b1f565b5b60006111cb84828501611192565b91505092915050565b6111dd81610e53565b82525050565b60006040820190506111f860008301856111d4565b6112056020830184610e29565b9392505050565b60006020828403121561122257611221610b1f565b5b600061123084828501610c3b565b91505092915050565b7f4e487b7100000000000000000000000000000000000000000000000000000000600052604160045260246000fd5b61127182610f8d565b810181811067ffffffffffffffff821117156112905761128f611239565b5b80604052505050565b60006112a3610b15565b90506112af8282611268565b919050565b600067ffffffffffffffff8211156112cf576112ce611239565b5b602082029050602081019050919050565b60006112f36112ee846112b4565b611299565b9050808382526020820190506020840283018581111561131657611315610b69565b5b835b8181101561133f578061132b8882610e7c565b845260208401935050602081019050611318565b5050509392505050565b600082601f83011261135e5761135d610b5f565b5b813561136e8482602086016112e0565b91505092915050565b6000806000606084860312156113905761138f610b1f565b5b600061139e86828701610c3b565b93505060206113af8682870161112c565b925050604084013567ffffffffffffffff8111156113d0576113cf610b24565b5b6113dc86828701611349565b9150509250925092565b7f4e487b7100000000000000000000000000000000000000000000000000000000600052603260045260246000fd5b600060208201905061142a60008301846111d4565b92915050565b600080fd5b600067ffffffffffffffff8211156114505761144f611239565b5b61145982610f8d565b9050602081019050919050565b600061147961147484611435565b611299565b90508281526020810184848401111561149557611494611430565b5b6114a0848285610f2f565b509392505050565b600082601f8301126114bd576114bc610b5f565b5b81356114cd848260208601611466565b91505092915050565b600080600080600060a086880312156114f2576114f1610b1f565b5b600061150088828901610c3b565b95505060206115118882890161112c565b945050604061152288828901610c3b565b935050606061153388828901610c3b565b925050608086013567ffffffffffffffff81111561155457611553610b24565b5b611560888289016114a8565b9150509295509295909350565b600081519050919050565b600082825260208201905092915050565b60005b838110156115a757808201518184015260208101905061158c565b60008484015250505050565b60006115be8261156d565b6115c88185611578565b93506115d8818560208601611589565b6115e181610f8d565b840191505092915050565b60006040820190506116016000830185610e29565b818103602083015261161381846115b3565b90509392505050565b60006040820190506116316000830185610e29565b61163e6020830184610e29565b9392505050565b60006116508261156d565b61165a8185610f24565b935061166a818560208601611589565b80840191505092915050565b60006116828284611645565b91508190509291505056fea2646970667358221220b471d79ecfa86c6070c6d6d7e038c31f98bad0e5dc7bd4df0028a9e36970c05164736f6c634300081c0033",
  "linkReferences": {},
  "deployedLinkReferences": {}
}