{
  "_format": "hh-sol-artifact-1",
  "contractName": "DepositOnAaveLendingPool",
  "sourceName": "contracts/DepositOnAaveLendingPool.sol",
  "abi": [
    {
      "inputs": [
        {
          "internalType": "address",
          "name": "_gateway",
          "type": "address"
        },
        {
          "internalType": "address",
          "name": "_gasReceiver",
          "type": "address"
        },
        {
          "internalType": "address",
          "name": "_aaveLendingPool",
          "type": "address"
        }
      ],
      "stateMutability": "nonpayable",
      "type": "constructor"
    },
    {
      "inputs": [],
      "name": "InvalidAddress",
      "type": "error"
    },
    {
      "inputs": [],
      "name": "NotApprovedByGateway",
      "type": "error"
    },
    {
      "anonymous": false,
      "inputs": [
        {
          "indexed": false,
          "internalType": "bytes32",
          "name": "commandId",
          "type": "bytes32"
        },
        {
          "indexed": false,
          "internalType": "string",
          "name": "sourceChain",
          "type": "string"
        },
        {
          "indexed": false,
          "internalType": "string",
          "name": "sourceAddress",
          "type": "string"
        },
        {
          "indexed": false,
          "internalType": "bytes",
          "name": "payload",
          "type": "bytes"
        }
      ],
      "name": "Executed",
      "type": "event"
    },
    {
      "anonymous": false,
      "inputs": [
        {
          "indexed": false,
          "internalType": "bytes32",
          "name": "commandId",
          "type": "bytes32"
        },
        {
          "indexed": false,
          "internalType": "string",
          "name": "sourceChain",
          "type": "string"
        },
        {
          "indexed": false,
          "internalType": "string",
          "name": "sourceAddress",
          "type": "string"
        },
        {
          "indexed": false,
          "internalType": "bytes",
          "name": "payload",
          "type": "bytes"
        },
        {
          "indexed": false,
          "internalType": "string",
          "name": "tokenSymbol",
          "type": "string"
        },
        {
          "indexed": false,
          "internalType": "uint256",
          "name": "amount",
          "type": "uint256"
        }
      ],
      "name": "ExecutedWithToken",
      "type": "event"
    },
    {
      "anonymous": false,
      "inputs": [
        {
          "indexed": false,
          "internalType": "address",
          "name": "tokenAddress",
          "type": "address"
        },
        {
          "indexed": false,
          "internalType": "uint256",
          "name": "amount",
          "type": "uint256"
        }
      ],
      "name": "ExecutedWithTokenAddress",
      "type": "event"
    },
    {
      "inputs": [],
      "name": "aaveLendingPool",
      "outputs": [
        {
          "internalType": "address",
          "name": "",
          "type": "address"
        }
      ],
      "stateMutability": "view",
      "type": "function"
    },
    {
      "inputs": [
        {
          "internalType": "bytes32",
          "name": "commandId",
          "type": "bytes32"
        },
        {
          "internalType": "string",
          "name": "sourceChain",
          "type": "string"
        },
        {
          "internalType": "string",
          "name": "sourceAddress",
          "type": "string"
        },
        {
          "internalType": "bytes",
          "name": "payload",
          "type": "bytes"
        }
      ],
      "name": "execute",
      "outputs": [],
      "stateMutability": "nonpayable",
      "type": "function"
    },
    {
      "inputs": [
        {
          "internalType": "bytes32",
          "name": "commandId",
          "type": "bytes32"
        },
        {
          "internalType": "string",
          "name": "sourceChain",
          "type": "string"
        },
        {
          "internalType": "string",
          "name": "sourceAddress",
          "type": "string"
        },
        {
          "internalType": "bytes",
          "name": "payload",
          "type": "bytes"
        },
        {
          "internalType": "string",
          "name": "tokenSymbol",
          "type": "string"
        },
        {
          "internalType": "uint256",
          "name": "amount",
          "type": "uint256"
        }
      ],
      "name": "executeWithToken",
      "outputs": [],
      "stateMutability": "nonpayable",
      "type": "function"
    },
    {
      "inputs": [
        {
          "internalType": "address",
          "name": "tokenAddress",
          "type": "address"
        },
        {
          "internalType": "uint256",
          "name": "amount",
          "type": "uint256"
        }
      ],
      "name": "executeWithTokenAddress",
      "outputs": [],
      "stateMutability": "nonpayable",
      "type": "function"
    },
    {
      "inputs": [
        {
          "internalType": "string",
          "name": "tokenSymbol",
          "type": "string"
        },
        {
          "internalType": "uint256",
          "name": "amount",
          "type": "uint256"
        }
      ],
      "name": "executeWithTokenSymbol",
      "outputs": [],
      "stateMutability": "nonpayable",
      "type": "function"
    },
    {
      "inputs": [],
      "name": "gasService",
      "outputs": [
        {
          "internalType": "contract IAxelarGasService",
          "name": "",
          "type": "address"
        }
      ],
      "stateMutability": "view",
      "type": "function"
    },
    {
      "inputs": [],
      "name": "gateway",
      "outputs": [
        {
          "internalType": "contract IAxelarGateway",
          "name": "",
          "type": "address"
        }
      ],
      "stateMutability": "view",
      "type": "function"
    }
  ],
  "bytecode": "0x60e060405234801561001057600080fd5b506040516118e23803806118e2833981810160405281019061003291906101a3565b8280600073ffffffffffffffffffffffffffffffffffffffff168173ffffffffffffffffffffffffffffffffffffffff160361009a576040517fe6c4247b00000000000000000000000000000000000000000000000000000000815260040160405180910390fd5b8073ffffffffffffffffffffffffffffffffffffffff1660808173ffffffffffffffffffffffffffffffffffffffff168152505050508173ffffffffffffffffffffffffffffffffffffffff1660a08173ffffffffffffffffffffffffffffffffffffffff16815250508073ffffffffffffffffffffffffffffffffffffffff1660c08173ffffffffffffffffffffffffffffffffffffffff16815250505050506101f6565b600080fd5b600073ffffffffffffffffffffffffffffffffffffffff82169050919050565b600061017082610145565b9050919050565b61018081610165565b811461018b57600080fd5b50565b60008151905061019d81610177565b92915050565b6000806000606084860312156101bc576101bb610140565b5b60006101ca8682870161018e565b93505060206101db8682870161018e565b92505060406101ec8682870161018e565b9150509250925092565b60805160a05160c05161168c610256600039600081816104fd0152818161058001528181610731015281816107b40152818161088301528181610a470152610aca0152600061037201526000818161015001526108a9015261168c6000f3fe608060405234801561001057600080fd5b506004361061007d5760003560e01c80636a22d8cc1161005b5780636a22d8cc146100d857806399629d40146100f6578063daa61ac514610112578063e9d337b81461012e5761007d565b8063116191b6146100825780631a98b2e0146100a057806349160658146100bc575b600080fd5b61008a61014c565b6040516100979190610c7c565b60405180910390f35b6100ba60048036038101906100b59190610dc8565b610174565b005b6100d660048036038101906100d19190610ed8565b610278565b005b6100e0610370565b6040516100ed9190610fc2565b60405180910390f35b610110600480360381019061010b9190610fdd565b610394565b005b61012c6004803603810190610127919061107b565b61064f565b005b610136610881565b60405161014391906110ca565b60405180910390f35b60007f0000000000000000000000000000000000000000000000000000000000000000905090565b60008585604051610186929190611124565b604051809103902090506101986108a5565b73ffffffffffffffffffffffffffffffffffffffff16631876eed98c8c8c8c8c878b8b8b6040518a63ffffffff1660e01b81526004016101e0999897969594939291906111aa565b6020604051808303816000875af11580156101ff573d6000803e3d6000fd5b505050506040513d601f19601f82011682018060405250810190610223919061125e565b610259576040517f500c44b400000000000000000000000000000000000000000000000000000000815260040160405180910390fd5b61026b8b8b8b8b8b8b8b8b8b8b6108cd565b5050505050505050505050565b6000828260405161028a929190611124565b6040518091039020905061029c61014c565b73ffffffffffffffffffffffffffffffffffffffff16635f6970c38989898989876040518763ffffffff1660e01b81526004016102de9695949392919061128b565b6020604051808303816000875af11580156102fd573d6000803e3d6000fd5b505050506040513d601f19601f82011682018060405250810190610321919061125e565b610357576040517f500c44b400000000000000000000000000000000000000000000000000000000815260040160405180910390fd5b61036688888888888888610bb1565b5050505050505050565b7f000000000000000000000000000000000000000000000000000000000000000081565b600081116103d7576040517f08c379a00000000000000000000000000000000000000000000000000000000081526004016103ce90611354565b60405180910390fd5b60006103e16108a5565b73ffffffffffffffffffffffffffffffffffffffff1663935b13f685856040518363ffffffff1660e01b815260040161041b929190611374565b602060405180830381865afa158015610438573d6000803e3d6000fd5b505050506040513d601f19601f8201168201806040525081019061045c91906113ad565b90508073ffffffffffffffffffffffffffffffffffffffff166323b872dd3330856040518463ffffffff1660e01b815260040161049b939291906113da565b6020604051808303816000875af11580156104ba573d6000803e3d6000fd5b505050506040513d601f19601f820116820180604052508101906104de919061125e565b508073ffffffffffffffffffffffffffffffffffffffff1663095ea7b37f0000000000000000000000000000000000000000000000000000000000000000846040518363ffffffff1660e01b815260040161053a929190611411565b6020604051808303816000875af1158015610559573d6000803e3d6000fd5b505050506040513d601f19601f8201168201806040525081019061057d919061125e565b507f000000000000000000000000000000000000000000000000000000000000000073ffffffffffffffffffffffffffffffffffffffff1663617ba03782843360006040518563ffffffff1660e01b81526004016105de9493929190611483565b600060405180830381600087803b1580156105f857600080fd5b505af115801561060c573d6000803e3d6000fd5b505050507f4d6ec7851e1a2ddfd84ac140943e060db6413d3c29b38790c1a8770323d816c08183604051610641929190611411565b60405180910390a150505050565b60008111610692576040517f08c379a000000000000000000000000000000000000000000000000000000000815260040161068990611354565b60405180910390fd5b8173ffffffffffffffffffffffffffffffffffffffff166323b872dd3330846040518463ffffffff1660e01b81526004016106cf939291906113da565b6020604051808303816000875af11580156106ee573d6000803e3d6000fd5b505050506040513d601f19601f82011682018060405250810190610712919061125e565b508173ffffffffffffffffffffffffffffffffffffffff1663095ea7b37f0000000000000000000000000000000000000000000000000000000000000000836040518363ffffffff1660e01b815260040161076e929190611411565b6020604051808303816000875af115801561078d573d6000803e3d6000fd5b505050506040513d601f19601f820116820180604052508101906107b1919061125e565b507f000000000000000000000000000000000000000000000000000000000000000073ffffffffffffffffffffffffffffffffffffffff1663617ba03783833360006040518563ffffffff1660e01b81526004016108129493929190611483565b600060405180830381600087803b15801561082c57600080fd5b505af1158015610840573d6000803e3d6000fd5b505050507f4d6ec7851e1a2ddfd84ac140943e060db6413d3c29b38790c1a8770323d816c08282604051610875929190611411565b60405180910390a15050565b7f000000000000000000000000000000000000000000000000000000000000000081565b60007f0000000000000000000000000000000000000000000000000000000000000000905090565b600085858101906108de9190611506565b905060006108ea6108a5565b73ffffffffffffffffffffffffffffffffffffffff1663935b13f686866040518363ffffffff1660e01b8152600401610924929190611374565b602060405180830381865afa158015610941573d6000803e3d6000fd5b505050506040513d601f19601f8201168201806040525081019061096591906113ad565b9050600083116109aa576040517f08c379a00000000000000000000000000000000000000000000000000000000081526004016109a190611354565b60405180910390fd5b8073ffffffffffffffffffffffffffffffffffffffff1663a9059cbb30856040518363ffffffff1660e01b81526004016109e5929190611411565b6020604051808303816000875af1158015610a04573d6000803e3d6000fd5b505050506040513d601f19601f82011682018060405250810190610a28919061125e565b508073ffffffffffffffffffffffffffffffffffffffff1663095ea7b37f0000000000000000000000000000000000000000000000000000000000000000856040518363ffffffff1660e01b8152600401610a84929190611411565b6020604051808303816000875af1158015610aa3573d6000803e3d6000fd5b505050506040513d601f19601f82011682018060405250810190610ac7919061125e565b507f000000000000000000000000000000000000000000000000000000000000000073ffffffffffffffffffffffffffffffffffffffff1663617ba03782858560006040518563ffffffff1660e01b8152600401610b289493929190611483565b600060405180830381600087803b158015610b4257600080fd5b505af1158015610b56573d6000803e3d6000fd5b505050507f037cdadfe7f858c75ef382a3715512c431fe0e7c17d8fa0e0d14883c9059402a8c8c8c8c8c8c8c8c8c8c604051610b9b9a99989796959493929190611571565b60405180910390a1505050505050505050505050565b7f94407a710601dc5baf585fe46221b8aa3042996495575031844bdbf50c42e43b87878787878787604051610bec97969594939291906115f6565b60405180910390a150505050505050565b600073ffffffffffffffffffffffffffffffffffffffff82169050919050565b6000819050919050565b6000610c42610c3d610c3884610bfd565b610c1d565b610bfd565b9050919050565b6000610c5482610c27565b9050919050565b6000610c6682610c49565b9050919050565b610c7681610c5b565b82525050565b6000602082019050610c916000830184610c6d565b92915050565b600080fd5b600080fd5b6000819050919050565b610cb481610ca1565b8114610cbf57600080fd5b50565b600081359050610cd181610cab565b92915050565b600080fd5b600080fd5b600080fd5b60008083601f840112610cfc57610cfb610cd7565b5b8235905067ffffffffffffffff811115610d1957610d18610cdc565b5b602083019150836001820283011115610d3557610d34610ce1565b5b9250929050565b60008083601f840112610d5257610d51610cd7565b5b8235905067ffffffffffffffff811115610d6f57610d6e610cdc565b5b602083019150836001820283011115610d8b57610d8a610ce1565b5b9250929050565b6000819050919050565b610da581610d92565b8114610db057600080fd5b50565b600081359050610dc281610d9c565b92915050565b60008060008060008060008060008060c08b8d031215610deb57610dea610c97565b5b6000610df98d828e01610cc2565b9a505060208b013567ffffffffffffffff811115610e1a57610e19610c9c565b5b610e268d828e01610ce6565b995099505060408b013567ffffffffffffffff811115610e4957610e48610c9c565b5b610e558d828e01610ce6565b975097505060608b013567ffffffffffffffff811115610e7857610e77610c9c565b5b610e848d828e01610d3c565b955095505060808b013567ffffffffffffffff811115610ea757610ea6610c9c565b5b610eb38d828e01610ce6565b935093505060a0610ec68d828e01610db3565b9150509295989b9194979a5092959850565b60008060008060008060006080888a031215610ef757610ef6610c97565b5b6000610f058a828b01610cc2565b975050602088013567ffffffffffffffff811115610f2657610f25610c9c565b5b610f328a828b01610ce6565b9650965050604088013567ffffffffffffffff811115610f5557610f54610c9c565b5b610f618a828b01610ce6565b9450945050606088013567ffffffffffffffff811115610f8457610f83610c9c565b5b610f908a828b01610d3c565b925092505092959891949750929550565b6000610fac82610c49565b9050919050565b610fbc81610fa1565b82525050565b6000602082019050610fd76000830184610fb3565b92915050565b600080600060408486031215610ff657610ff5610c97565b5b600084013567ffffffffffffffff81111561101457611013610c9c565b5b61102086828701610ce6565b9350935050602061103386828701610db3565b9150509250925092565b600061104882610bfd565b9050919050565b6110588161103d565b811461106357600080fd5b50565b6000813590506110758161104f565b92915050565b6000806040838503121561109257611091610c97565b5b60006110a085828601611066565b92505060206110b185828601610db3565b9150509250929050565b6110c48161103d565b82525050565b60006020820190506110df60008301846110bb565b92915050565b600081905092915050565b82818337600083830152505050565b600061110b83856110e5565b93506111188385846110f0565b82840190509392505050565b60006111318284866110ff565b91508190509392505050565b61114681610ca1565b82525050565b600082825260208201905092915050565b6000601f19601f8301169050919050565b600061117a838561114c565b93506111878385846110f0565b6111908361115d565b840190509392505050565b6111a481610d92565b82525050565b600060c0820190506111bf600083018c61113d565b81810360208301526111d2818a8c61116e565b905081810360408301526111e781888a61116e565b90506111f6606083018761113d565b818103608083015261120981858761116e565b905061121860a083018461119b565b9a9950505050505050505050565b60008115159050919050565b61123b81611226565b811461124657600080fd5b50565b60008151905061125881611232565b92915050565b60006020828403121561127457611273610c97565b5b600061128284828501611249565b91505092915050565b60006080820190506112a0600083018961113d565b81810360208301526112b381878961116e565b905081810360408301526112c881858761116e565b90506112d7606083018461113d565b979650505050505050565b7f4465706f73697420616d6f756e74206d7573742062652067726561746572207460008201527f68616e207a65726f000000000000000000000000000000000000000000000000602082015250565b600061133e60288361114c565b9150611349826112e2565b604082019050919050565b6000602082019050818103600083015261136d81611331565b9050919050565b6000602082019050818103600083015261138f81848661116e565b90509392505050565b6000815190506113a78161104f565b92915050565b6000602082840312156113c3576113c2610c97565b5b60006113d184828501611398565b91505092915050565b60006060820190506113ef60008301866110bb565b6113fc60208301856110bb565b611409604083018461119b565b949350505050565b600060408201905061142660008301856110bb565b611433602083018461119b565b9392505050565b6000819050919050565b600061ffff82169050919050565b600061146d6114686114638461143a565b610c1d565b611444565b9050919050565b61147d81611452565b82525050565b600060808201905061149860008301876110bb565b6114a5602083018661119b565b6114b260408301856110bb565b6114bf6060830184611474565b95945050505050565b60006114d382610bfd565b9050919050565b6114e3816114c8565b81146114ee57600080fd5b50565b600081359050611500816114da565b92915050565b60006020828403121561151c5761151b610c97565b5b600061152a848285016114f1565b91505092915050565b600082825260208201905092915050565b60006115508385611533565b935061155d8385846110f0565b6115668361115d565b840190509392505050565b600060c082019050611586600083018d61113d565b8181036020830152611599818b8d61116e565b905081810360408301526115ae81898b61116e565b905081810360608301526115c3818789611544565b905081810360808301526115d881858761116e565b90506115e760a083018461119b565b9b9a5050505050505050505050565b600060808201905061160b600083018a61113d565b818103602083015261161e81888a61116e565b9050818103604083015261163381868861116e565b90508181036060830152611648818486611544565b90509897505050505050505056fea26469706673582212203aee16e3c89b384527ca79b07080e75d55ad086cbc84cb1f17dfd6b31464524264736f6c634300081c0033",
  "linkReferences": {},
  "deployedLinkReferences": {}
}