{
  "_format": "hh-sol-artifact-1",
  "contractName": "DepositOnAaveTokenGateway",
  "sourceName": "contracts/DepositOnAaveTokenGateway.sol",
  "abi": [
    {
      "inputs": [
        {
          "internalType": "address",
          "name": "_gateway",
          "type": "address"
        },
        {
          "internalType": "address",
          "name": "_gasReceiver",
          "type": "address"
        },
        {
          "internalType": "address",
          "name": "_aavePool",
          "type": "address"
        }
      ],
      "stateMutability": "nonpayable",
      "type": "constructor"
    },
    {
      "inputs": [],
      "name": "InvalidAddress",
      "type": "error"
    },
    {
      "inputs": [],
      "name": "NotApprovedByGateway",
      "type": "error"
    },
    {
      "anonymous": false,
      "inputs": [
        {
          "indexed": false,
          "internalType": "bytes32",
          "name": "commandId",
          "type": "bytes32"
        },
        {
          "indexed": false,
          "internalType": "string",
          "name": "sourceChain",
          "type": "string"
        },
        {
          "indexed": false,
          "internalType": "string",
          "name": "sourceAddress",
          "type": "string"
        },
        {
          "indexed": false,
          "internalType": "bytes",
          "name": "payload",
          "type": "bytes"
        }
      ],
      "name": "Executed",
      "type": "event"
    },
    {
      "anonymous": false,
      "inputs": [
        {
          "indexed": false,
          "internalType": "bytes32",
          "name": "commandId",
          "type": "bytes32"
        },
        {
          "indexed": false,
          "internalType": "string",
          "name": "sourceChain",
          "type": "string"
        },
        {
          "indexed": false,
          "internalType": "string",
          "name": "sourceAddress",
          "type": "string"
        },
        {
          "indexed": false,
          "internalType": "bytes",
          "name": "payload",
          "type": "bytes"
        },
        {
          "indexed": false,
          "internalType": "string",
          "name": "tokenSymbol",
          "type": "string"
        },
        {
          "indexed": false,
          "internalType": "uint256",
          "name": "amount",
          "type": "uint256"
        }
      ],
      "name": "ExecutedWithToken",
      "type": "event"
    },
    {
      "anonymous": false,
      "inputs": [
        {
          "indexed": false,
          "internalType": "address",
          "name": "tokenAddress",
          "type": "address"
        },
        {
          "indexed": false,
          "internalType": "uint256",
          "name": "amount",
          "type": "uint256"
        }
      ],
      "name": "ExecutedWithTokenAddress",
      "type": "event"
    },
    {
      "stateMutability": "payable",
      "type": "fallback"
    },
    {
      "inputs": [],
      "name": "aavePool",
      "outputs": [
        {
          "internalType": "address",
          "name": "",
          "type": "address"
        }
      ],
      "stateMutability": "view",
      "type": "function"
    },
    {
      "inputs": [
        {
          "internalType": "bytes32",
          "name": "commandId",
          "type": "bytes32"
        },
        {
          "internalType": "string",
          "name": "sourceChain",
          "type": "string"
        },
        {
          "internalType": "string",
          "name": "sourceAddress",
          "type": "string"
        },
        {
          "internalType": "bytes",
          "name": "payload",
          "type": "bytes"
        }
      ],
      "name": "execute",
      "outputs": [],
      "stateMutability": "nonpayable",
      "type": "function"
    },
    {
      "inputs": [
        {
          "internalType": "bytes32",
          "name": "commandId",
          "type": "bytes32"
        },
        {
          "internalType": "string",
          "name": "sourceChain",
          "type": "string"
        },
        {
          "internalType": "string",
          "name": "sourceAddress",
          "type": "string"
        },
        {
          "internalType": "bytes",
          "name": "payload",
          "type": "bytes"
        },
        {
          "internalType": "string",
          "name": "tokenSymbol",
          "type": "string"
        },
        {
          "internalType": "uint256",
          "name": "amount",
          "type": "uint256"
        }
      ],
      "name": "executeWithToken",
      "outputs": [],
      "stateMutability": "nonpayable",
      "type": "function"
    },
    {
      "inputs": [
        {
          "internalType": "string",
          "name": "tokenSymbol",
          "type": "string"
        },
        {
          "internalType": "uint256",
          "name": "amount",
          "type": "uint256"
        }
      ],
      "name": "executeWithTokenSymbol",
      "outputs": [],
      "stateMutability": "nonpayable",
      "type": "function"
    },
    {
      "inputs": [],
      "name": "gasService",
      "outputs": [
        {
          "internalType": "contract IAxelarGasService",
          "name": "",
          "type": "address"
        }
      ],
      "stateMutability": "view",
      "type": "function"
    },
    {
      "inputs": [],
      "name": "gateway",
      "outputs": [
        {
          "internalType": "contract IAxelarGateway",
          "name": "",
          "type": "address"
        }
      ],
      "stateMutability": "view",
      "type": "function"
    },
    {
      "stateMutability": "payable",
      "type": "receive"
    }
  ],
  "bytecode": "0x60e060405234801561001057600080fd5b506040516115ee3803806115ee833981810160405281019061003291906101a3565b8280600073ffffffffffffffffffffffffffffffffffffffff168173ffffffffffffffffffffffffffffffffffffffff160361009a576040517fe6c4247b00000000000000000000000000000000000000000000000000000000815260040160405180910390fd5b8073ffffffffffffffffffffffffffffffffffffffff1660808173ffffffffffffffffffffffffffffffffffffffff168152505050508173ffffffffffffffffffffffffffffffffffffffff1660a08173ffffffffffffffffffffffffffffffffffffffff16815250508073ffffffffffffffffffffffffffffffffffffffff1660c08173ffffffffffffffffffffffffffffffffffffffff16815250505050506101f6565b600080fd5b600073ffffffffffffffffffffffffffffffffffffffff82169050919050565b600061017082610145565b9050919050565b61018081610165565b811461018b57600080fd5b50565b60008151905061019d81610177565b92915050565b6000806000606084860312156101bc576101bb610140565b5b60006101ca8682870161018e565b93505060206101db8682870161018e565b92505060406101ec8682870161018e565b9150509250925092565b60805160a05160c0516113b461023a6000396000818161055801528181610628015261083b0152600061037e01526000818161015c015261064e01526113b46000f3fe6080604052600436106100595760003560e01c8063116191b61461005c5780631a98b2e01461008757806349160658146100b05780636a22d8cc146100d957806399629d4014610104578063a03e4bc31461012d5761005a565b5b005b34801561006857600080fd5b50610071610158565b60405161007e91906109ec565b60405180910390f35b34801561009357600080fd5b506100ae60048036038101906100a99190610b38565b610180565b005b3480156100bc57600080fd5b506100d760048036038101906100d29190610c48565b610284565b005b3480156100e557600080fd5b506100ee61037c565b6040516100fb9190610d32565b60405180910390f35b34801561011057600080fd5b5061012b60048036038101906101269190610d4d565b6103a0565b005b34801561013957600080fd5b50610142610626565b60405161014f9190610dce565b60405180910390f35b60007f0000000000000000000000000000000000000000000000000000000000000000905090565b60008585604051610192929190610e28565b604051809103902090506101a461064a565b73ffffffffffffffffffffffffffffffffffffffff16631876eed98c8c8c8c8c878b8b8b6040518a63ffffffff1660e01b81526004016101ec99989796959493929190610eae565b6020604051808303816000875af115801561020b573d6000803e3d6000fd5b505050506040513d601f19601f8201168201806040525081019061022f9190610f62565b610265576040517f500c44b400000000000000000000000000000000000000000000000000000000815260040160405180910390fd5b6102778b8b8b8b8b8b8b8b8b8b610672565b5050505050505050505050565b60008282604051610296929190610e28565b604051809103902090506102a8610158565b73ffffffffffffffffffffffffffffffffffffffff16635f6970c38989898989876040518763ffffffff1660e01b81526004016102ea96959493929190610f8f565b6020604051808303816000875af1158015610309573d6000803e3d6000fd5b505050506040513d601f19601f8201168201806040525081019061032d9190610f62565b610363576040517f500c44b400000000000000000000000000000000000000000000000000000000815260040160405180910390fd5b61037288888888888888610921565b5050505050505050565b7f000000000000000000000000000000000000000000000000000000000000000081565b600081116103e3576040517f08c379a00000000000000000000000000000000000000000000000000000000081526004016103da90611058565b60405180910390fd5b60006103ed61064a565b73ffffffffffffffffffffffffffffffffffffffff1663935b13f685856040518363ffffffff1660e01b8152600401610427929190611078565b602060405180830381865afa158015610444573d6000803e3d6000fd5b505050506040513d601f19601f8201168201806040525081019061046891906110c8565b90508073ffffffffffffffffffffffffffffffffffffffff166323b872dd3330856040518463ffffffff1660e01b81526004016104a7939291906110f5565b6020604051808303816000875af11580156104c6573d6000803e3d6000fd5b505050506040513d601f19601f820116820180604052508101906104ea9190610f62565b508073ffffffffffffffffffffffffffffffffffffffff16632e1a7d4d836040518263ffffffff1660e01b8152600401610524919061112c565b600060405180830381600087803b15801561053e57600080fd5b505af1158015610552573d6000803e3d6000fd5b505050507f000000000000000000000000000000000000000000000000000000000000000073ffffffffffffffffffffffffffffffffffffffff1663474cf53d83833360006040518563ffffffff1660e01b81526004016105b593929190611190565b6000604051808303818588803b1580156105ce57600080fd5b505af11580156105e2573d6000803e3d6000fd5b50505050507f4d6ec7851e1a2ddfd84ac140943e060db6413d3c29b38790c1a8770323d816c081836040516106189291906111c7565b60405180910390a150505050565b7f000000000000000000000000000000000000000000000000000000000000000081565b60007f0000000000000000000000000000000000000000000000000000000000000000905090565b60008585810190610683919061122e565b9050600061068f61064a565b73ffffffffffffffffffffffffffffffffffffffff1663935b13f686866040518363ffffffff1660e01b81526004016106c9929190611078565b602060405180830381865afa1580156106e6573d6000803e3d6000fd5b505050506040513d601f19601f8201168201806040525081019061070a91906110c8565b90506000831161074f576040517f08c379a000000000000000000000000000000000000000000000000000000000815260040161074690611058565b60405180910390fd5b8073ffffffffffffffffffffffffffffffffffffffff1663a9059cbb30856040518363ffffffff1660e01b815260040161078a9291906111c7565b6020604051808303816000875af11580156107a9573d6000803e3d6000fd5b505050506040513d601f19601f820116820180604052508101906107cd9190610f62565b508073ffffffffffffffffffffffffffffffffffffffff16632e1a7d4d846040518263ffffffff1660e01b8152600401610807919061112c565b600060405180830381600087803b15801561082157600080fd5b505af1158015610835573d6000803e3d6000fd5b505050507f000000000000000000000000000000000000000000000000000000000000000073ffffffffffffffffffffffffffffffffffffffff1663474cf53d84838560006040518563ffffffff1660e01b815260040161089893929190611190565b6000604051808303818588803b1580156108b157600080fd5b505af11580156108c5573d6000803e3d6000fd5b50505050507f037cdadfe7f858c75ef382a3715512c431fe0e7c17d8fa0e0d14883c9059402a8c8c8c8c8c8c8c8c8c8c60405161090b9a99989796959493929190611299565b60405180910390a1505050505050505050505050565b7f94407a710601dc5baf585fe46221b8aa3042996495575031844bdbf50c42e43b8787878787878760405161095c979695949392919061131e565b60405180910390a150505050505050565b600073ffffffffffffffffffffffffffffffffffffffff82169050919050565b6000819050919050565b60006109b26109ad6109a88461096d565b61098d565b61096d565b9050919050565b60006109c482610997565b9050919050565b60006109d6826109b9565b9050919050565b6109e6816109cb565b82525050565b6000602082019050610a0160008301846109dd565b92915050565b600080fd5b600080fd5b6000819050919050565b610a2481610a11565b8114610a2f57600080fd5b50565b600081359050610a4181610a1b565b92915050565b600080fd5b600080fd5b600080fd5b60008083601f840112610a6c57610a6b610a47565b5b8235905067ffffffffffffffff811115610a8957610a88610a4c565b5b602083019150836001820283011115610aa557610aa4610a51565b5b9250929050565b60008083601f840112610ac257610ac1610a47565b5b8235905067ffffffffffffffff811115610adf57610ade610a4c565b5b602083019150836001820283011115610afb57610afa610a51565b5b9250929050565b6000819050919050565b610b1581610b02565b8114610b2057600080fd5b50565b600081359050610b3281610b0c565b92915050565b60008060008060008060008060008060c08b8d031215610b5b57610b5a610a07565b5b6000610b698d828e01610a32565b9a505060208b013567ffffffffffffffff811115610b8a57610b89610a0c565b5b610b968d828e01610a56565b995099505060408b013567ffffffffffffffff811115610bb957610bb8610a0c565b5b610bc58d828e01610a56565b975097505060608b013567ffffffffffffffff811115610be857610be7610a0c565b5b610bf48d828e01610aac565b955095505060808b013567ffffffffffffffff811115610c1757610c16610a0c565b5b610c238d828e01610a56565b935093505060a0610c368d828e01610b23565b9150509295989b9194979a5092959850565b60008060008060008060006080888a031215610c6757610c66610a07565b5b6000610c758a828b01610a32565b975050602088013567ffffffffffffffff811115610c9657610c95610a0c565b5b610ca28a828b01610a56565b9650965050604088013567ffffffffffffffff811115610cc557610cc4610a0c565b5b610cd18a828b01610a56565b9450945050606088013567ffffffffffffffff811115610cf457610cf3610a0c565b5b610d008a828b01610aac565b925092505092959891949750929550565b6000610d1c826109b9565b9050919050565b610d2c81610d11565b82525050565b6000602082019050610d476000830184610d23565b92915050565b600080600060408486031215610d6657610d65610a07565b5b600084013567ffffffffffffffff811115610d8457610d83610a0c565b5b610d9086828701610a56565b93509350506020610da386828701610b23565b9150509250925092565b6000610db88261096d565b9050919050565b610dc881610dad565b82525050565b6000602082019050610de36000830184610dbf565b92915050565b600081905092915050565b82818337600083830152505050565b6000610e0f8385610de9565b9350610e1c838584610df4565b82840190509392505050565b6000610e35828486610e03565b91508190509392505050565b610e4a81610a11565b82525050565b600082825260208201905092915050565b6000601f19601f8301169050919050565b6000610e7e8385610e50565b9350610e8b838584610df4565b610e9483610e61565b840190509392505050565b610ea881610b02565b82525050565b600060c082019050610ec3600083018c610e41565b8181036020830152610ed6818a8c610e72565b90508181036040830152610eeb81888a610e72565b9050610efa6060830187610e41565b8181036080830152610f0d818587610e72565b9050610f1c60a0830184610e9f565b9a9950505050505050505050565b60008115159050919050565b610f3f81610f2a565b8114610f4a57600080fd5b50565b600081519050610f5c81610f36565b92915050565b600060208284031215610f7857610f77610a07565b5b6000610f8684828501610f4d565b91505092915050565b6000608082019050610fa46000830189610e41565b8181036020830152610fb7818789610e72565b90508181036040830152610fcc818587610e72565b9050610fdb6060830184610e41565b979650505050505050565b7f4465706f73697420616d6f756e74206d7573742062652067726561746572207460008201527f68616e207a65726f000000000000000000000000000000000000000000000000602082015250565b6000611042602883610e50565b915061104d82610fe6565b604082019050919050565b6000602082019050818103600083015261107181611035565b9050919050565b60006020820190508181036000830152611093818486610e72565b90509392505050565b6110a581610dad565b81146110b057600080fd5b50565b6000815190506110c28161109c565b92915050565b6000602082840312156110de576110dd610a07565b5b60006110ec848285016110b3565b91505092915050565b600060608201905061110a6000830186610dbf565b6111176020830185610dbf565b6111246040830184610e9f565b949350505050565b60006020820190506111416000830184610e9f565b92915050565b6000819050919050565b600061ffff82169050919050565b600061117a61117561117084611147565b61098d565b611151565b9050919050565b61118a8161115f565b82525050565b60006060820190506111a56000830186610dbf565b6111b26020830185610dbf565b6111bf6040830184611181565b949350505050565b60006040820190506111dc6000830185610dbf565b6111e96020830184610e9f565b9392505050565b60006111fb8261096d565b9050919050565b61120b816111f0565b811461121657600080fd5b50565b60008135905061122881611202565b92915050565b60006020828403121561124457611243610a07565b5b600061125284828501611219565b91505092915050565b600082825260208201905092915050565b6000611278838561125b565b9350611285838584610df4565b61128e83610e61565b840190509392505050565b600060c0820190506112ae600083018d610e41565b81810360208301526112c1818b8d610e72565b905081810360408301526112d681898b610e72565b905081810360608301526112eb81878961126c565b90508181036080830152611300818587610e72565b905061130f60a0830184610e9f565b9b9a5050505050505050505050565b6000608082019050611333600083018a610e41565b818103602083015261134681888a610e72565b9050818103604083015261135b818688610e72565b9050818103606083015261137081848661126c565b90509897505050505050505056fea2646970667358221220046e2de57c4532bb05bb9d52fe235276656e0446e22df752291d7cd249625fa064736f6c634300081c0033",
  "linkReferences": {},
  "deployedLinkReferences": {}
}