{
  "_format": "hh-sol-artifact-1",
  "contractName": "Counter",
  "sourceName": "contracts/Counter.sol",
  "abi": [
    {
      "inputs": [
        {
          "internalType": "uint256",
          "name": "initialCount",
          "type": "uint256"
        }
      ],
      "stateMutability": "nonpayable",
      "type": "constructor"
    },
    {
      "inputs": [],
      "name": "decrement",
      "outputs": [],
      "stateMutability": "nonpayable",
      "type": "function"
    },
    {
      "inputs": [],
      "name": "getCount",
      "outputs": [
        {
          "internalType": "uint256",
          "name": "",
          "type": "uint256"
        }
      ],
      "stateMutability": "view",
      "type": "function"
    },
    {
      "inputs": [],
      "name": "increment",
      "outputs": [],
      "stateMutability": "nonpayable",
      "type": "function"
    },
    {
      "inputs": [
        {
          "internalType": "uint256",
          "name": "newCount",
          "type": "uint256"
        }
      ],
      "name": "setCount",
      "outputs": [],
      "stateMutability": "nonpayable",
      "type": "function"
    }
  ],
  "bytecode": "0x6080604052348015600f57600080fd5b506040516102ef3803806102ef8339818101604052810190602f91906071565b80600081905550506099565b600080fd5b6000819050919050565b6051816040565b8114605b57600080fd5b50565b600081519050606b81604a565b92915050565b6000602082840312156084576083603b565b5b6000609084828501605e565b91505092915050565b610247806100a86000396000f3fe608060405234801561001057600080fd5b506004361061004c5760003560e01c80632baeceb714610051578063a87d942c1461005b578063d09de08a14610079578063d14e62b814610083575b600080fd5b61005961009f565b005b6100636100ba565b6040516100709190610101565b60405180910390f35b6100816100c3565b005b61009d6004803603810190610098919061014d565b6100de565b005b60016000808282546100b191906101a9565b92505081905550565b60008054905090565b60016000808282546100d591906101dd565b92505081905550565b8060008190555050565b6000819050919050565b6100fb816100e8565b82525050565b600060208201905061011660008301846100f2565b92915050565b600080fd5b61012a816100e8565b811461013557600080fd5b50565b60008135905061014781610121565b92915050565b6000602082840312156101635761016261011c565b5b600061017184828501610138565b91505092915050565b7f4e487b7100000000000000000000000000000000000000000000000000000000600052601160045260246000fd5b60006101b4826100e8565b91506101bf836100e8565b92508282039050818111156101d7576101d661017a565b5b92915050565b60006101e8826100e8565b91506101f3836100e8565b925082820190508082111561020b5761020a61017a565b5b9291505056fea2646970667358221220bf9517d52641657143c44b4d1df493f89d440aca5950016d20bbdd7fe1e03b9e64736f6c634300081c0033",
  "linkReferences": {},
  "deployedLinkReferences": {}
}